:020000040000fa
:080000000002040000000000f2
:020000040000fa
:04000800c003000031
:020000040000fa
:04000c00c00300002d
:020000040000fa
:04001000c003000029
:020000040000fa
:04001400c003000025
:020000040000fa
:04001800c003000021
:020000040000fa
:04001c00c00300001d
:020000040000fa
:04002000c003000019
:020000040000fa
:04002400c003000015
:020000040000fa
:04002800c003000011
:020000040000fa
:04002c00c00300000d
:020000040000fa
:04003000c003000009
:020000040000fa
:04003400c003000005
:020000040000fa
:04003800c003000001
:020000040000fa
:04003c00c0030000fd
:020000040000fa
:04004000c0030000f9
:020000040000fa
:04004400c0030000f5
:020000040000fa
:04004800c0030000f1
:020000040000fa
:04004c00c0030000ed
:020000040000fa
:04005000c0030000e9
:020000040000fa
:04005400c0030000e5
:020000040000fa
:04005800c0030000e1
:020000040000fa
:04005c00c0030000dd
:020000040000fa
:04006000c0030000d9
:020000040000fa
:04006400c0030000d5
:020000040000fa
:04006800c0030000d1
:020000040000fa
:04006c00c0030000cd
:020000040000fa
:04007000c0030000c9
:020000040000fa
:04007400c0030000c5
:020000040000fa
:04007800c0030000c1
:020000040000fa
:04007c00c0030000bd
:020000040000fa
:04008000c0030000b9
:020000040000fa
:04008400c0030000b5
:020000040000fa
:04008800c0030000b1
:020000040000fa
:04008c00c0030000ad
:020000040000fa
:04009000c0030000a9
:020000040000fa
:04009400c0030000a5
:020000040000fa
:04009800c0030000a1
:020000040000fa
:04009c00c00300009d
:020000040000fa
:0400a000c003000099
:020000040000fa
:0400a400c003000095
:020000040000fa
:0400a800c003000091
:020000040000fa
:0400ac00c00300008d
:020000040000fa
:0400b000c003000089
:020000040000fa
:0400b400c003000085
:020000040000fa
:0400b800c003000081
:020000040000fa
:0400bc00c00300007d
:020000040000fa
:0400c000c003000079
:020000040000fa
:0400c400c003000075
:020000040000fa
:0400c800c003000071
:020000040000fa
:0400cc00c00300006d
:020000040000fa
:0400d000c003000069
:020000040000fa
:0400d400c003000065
:020000040000fa
:0400d800c003000061
:020000040000fa
:0400dc00c00300005d
:020000040000fa
:0400e000c003000059
:020000040000fa
:0400e400c003000055
:020000040000fa
:0400e800c003000051
:020000040000fa
:0400ec00c00300004d
:020000040000fa
:0400f000c003000049
:020000040000fa
:0400f400c003000045
:020000040000fa
:0400f800c003000041
:020000040000fa
:0400fc00c00300003d
:020000040000fa
:04010000c003000038
:020000040000fa
:04010400c003000034
:020000040000fa
:04010800c003000030
:020000040000fa
:04010c00c00300002c
:020000040000fa
:04011000c003000028
:020000040000fa
:04011400c003000024
:020000040000fa
:04011800c003000020
:020000040000fa
:04011c00c00300001c
:020000040000fa
:04012000c003000018
:020000040000fa
:04012400c003000014
:020000040000fa
:04012800c003000010
:020000040000fa
:04012c00c00300000c
:020000040000fa
:04013000c003000008
:020000040000fa
:04013400c003000004
:020000040000fa
:04013800c003000000
:020000040000fa
:04013c00c0030000fc
:020000040000fa
:04014000c0030000f8
:020000040000fa
:04014400c0030000f4
:020000040000fa
:04014800c0030000f0
:020000040000fa
:04014c00c0030000ec
:020000040000fa
:04015000c0030000e8
:020000040000fa
:04015400c0030000e4
:020000040000fa
:04015800c0030000e0
:020000040000fa
:04015c00c0030000dc
:020000040000fa
:04016000c0030000d8
:020000040000fa
:04016400c0030000d4
:020000040000fa
:04016800c0030000d0
:020000040000fa
:04016c00c0030000cc
:020000040000fa
:04017000c0030000c8
:020000040000fa
:04017400c0030000c4
:020000040000fa
:04017800c0030000c0
:020000040000fa
:04017c00c0030000bc
:020000040000fa
:04018000c0030000b8
:020000040000fa
:04018400c0030000b4
:020000040000fa
:04018800c0030000b0
:020000040000fa
:04018c00c0030000ac
:020000040000fa
:04019000c0030000a8
:020000040000fa
:04019400c0030000a4
:020000040000fa
:04019800c0030000a0
:020000040000fa
:04019c00c00300009c
:020000040000fa
:0401a000c003000098
:020000040000fa
:0401a400c003000094
:020000040000fa
:0401a800c003000090
:020000040000fa
:0401ac00fa02000053
:020000040000fa
:0401b000c003000088
:020000040000fa
:0401b400c003000084
:020000040000fa
:0401b800c003000080
:020000040000fa
:0401bc00c00300007c
:020000040000fa
:0401c000c003000078
:020000040000fa
:0401c400c003000074
:020000040000fa
:0401c800c003000070
:020000040000fa
:0401cc00c00300006c
:020000040000fa
:0401d000c003000068
:020000040000fa
:0401d4008e03000096
:020000040000fa
:0401d800c003000060
:020000040000fa
:0401dc00c00300005c
:020000040000fa
:0401e000c003000058
:020000040000fa
:0401e400c003000054
:020000040000fa
:0401e800c003000050
:020000040000fa
:0401ec00c00300004c
:020000040000fa
:0401f000c003000048
:020000040000fa
:0401f400c003000044
:020000040000fa
:0401f800c003000040
:020000040000fa
:0401fc00c00300003c
:020000040000fa
:04020000c003000037
:020000040000fa
:04020400c003000033
:020000040000fa
:04020800c00300002f
:020000040000fa
:04020c00c00300002b
:020000040000fa
:04021000c003000027
:020000040000fa
:04021400c003000023
:020000040000fa
:04021800c00300001f
:020000040000fa
:04021c00c00300001b
:020000040000fa
:04022000c003000017
:020000040000fa
:04022400c003000013
:020000040000fa
:04022800c00300000f
:020000040000fa
:04022c00c00300000b
:020000040000fa
:04023000c003000007
:020000040000fa
:04023400c003000003
:020000040000fa
:04023800c0030000ff
:020000040000fa
:04023c00c0030000fb
:020000040000fa
:04024000c0030000f7
:020000040000fa
:04024400c0030000f3
:020000040000fa
:04024800c0030000ef
:020000040000fa
:04024c00c0030000eb
:020000040000fa
:04025000c0030000e7
:020000040000fa
:04025400c0030000e3
:020000040000fa
:04025800c0030000df
:020000040000fa
:04025c00c0030000db
:020000040000fa
:04026000c0030000d7
:020000040000fa
:04026400c0030000d3
:020000040000fa
:04026800c0030000cf
:020000040000fa
:04026c00c0030000cb
:020000040000fa
:04027000c0030000c7
:020000040000fa
:04027400c0030000c3
:020000040000fa
:04027800c0030000bf
:020000040000fa
:04027c00c0030000bb
:020000040000fa
:04028000c0030000b7
:020000040000fa
:04028400c0030000b3
:020000040000fa
:04028800c0030000af
:020000040000fa
:04028c00c0030000ab
:020000040000fa
:04029000c0030000a7
:020000040000fa
:04029400c0030000a3
:020000040000fa
:04029800c00300009f
:020000040000fa
:04029c00c00300009b
:020000040000fa
:0402a000c003000097
:020000040000fa
:0402a400c003000093
:020000040000fa
:0402a800c00300008f
:020000040000fa
:0402ac00c00300008b
:020000040000fa
:0402b000c003000087
:020000040000fa
:0402b400c003000083
:020000040000fa
:0402b800c00300007f
:020000040000fa
:0402bc00c00300007b
:020000040000fa
:0402c000c003000077
:020000040000fa
:0402c400c003000073
:020000040000fa
:0402c800c00300006f
:020000040000fa
:0402cc00c00300006b
:020000040000fa
:0402d000c003000067
:020000040000fa
:0402d400c003000063
:020000040000fa
:0402d800c00300005f
:020000040000fa
:0402dc00c00300005b
:020000040000fa
:0402e000c003000057
:020000040000fa
:0402e400c003000053
:020000040000fa
:0402e800c00300004f
:020000040000fa
:0402ec00c00300004b
:020000040000fa
:0402f000c003000047
:020000040000fa
:0402f400c003000043
:020000040000fa
:0402f800c00300003f
:020000040000fa
:0402fc00c00300003b
:020000040000fa
:04030000c003000036
:020000040000fa
:04030400c003000032
:020000040000fa
:04030800c00300002e
:020000040000fa
:04030c00c00300002a
:020000040000fa
:04031000c003000026
:020000040000fa
:04031400c003000022
:020000040000fa
:04031800c00300001e
:020000040000fa
:04031c00c00300001a
:020000040000fa
:04032000c003000016
:020000040000fa
:04032400c003000012
:020000040000fa
:04032800c00300000e
:020000040000fa
:04032c00c00300000a
:020000040000fa
:04033000c003000006
:020000040000fa
:04033400c003000002
:020000040000fa
:10040000af0b21006efe26000e01880000000000e8
:10041000000020000000e000020032000001200087
:100420002002880014000700d70007000000e00049
:1004300003003a0080212100010020000200370063
:100440000000200001002000810f70000100320038
:100450000f000700000020000000e0000200320052
:100460000000020000000000201002000000000058
:100470000040da000000fe00200020000000e00044
:1004800002003200100020009001880000000600e9
:10049000a1028800800478000000eb001f003700f4
:1004a000e284440054a0b4009905ba00e2844400f8
:1004b00054a0b4009906ba00e284440054a0b400e9
:1004c0000006eb00476fde00fd07b200ae018800ba
:1004d000636ce10003003a000ad801000000eb0061
:1004e0000e003700606ce10008003a00004deb00a0
:1004f0000a05e800020039003420ec000af0a000f0
:100500008b05e900f9ff3e00040037006168e10057
:10051000010032000086eb000b00070019c7ba008b
:100520001905ba000e04e00003003a000a00e000da
:10053000dbff3a0000000600fe07b200ae028800b2
:100540008a047800f5ff37000cd0a300e20f4d00bd
:100550001c00390089027800354dba000a05e80010
:10056000020039003420ec000af0a0008b05e900fd
:100570000f003200254dba000a05e80002003900dc
:100580003420ec000af0a0008b05e90008003200de
:100590000c00e0000600320015cdba000a05e800a4
:1005a000020039003420ec000af0a0008b05e900bd
:1005b0008984e80054a0b4000b00e000e2ff3a0098
:1005c000000006009902ba00055d78008b05e9007d
:1005d000f7ff3200c82ade00055d78008b05e900d0
:1005e000f3ff32000c00e000f1ff320019ddba0029
:1005f000eeff37003200f8003400f8001000200051
:10060000a001880010002000900188000600fa0078
:100610000000eb00000f78006000b80010079800a1
:1006200021079800c0608000000f78001e0078004d
:100630004300dd00000f78001e0078008000eb0012
:10064000926720000289b900020178006002b900b7
:100650008401780003014100936720000300b80083
:1006600001014100820078001007980021079800de
:100670001e009000ae0090004109dd004f00de003a
:1006800000007100cf08de001007980021079800d5
:100690001e009000ae00900080007800906720005f
:1006a000008040006101b80090818000a18180003d
:1006b000020040008380480090818800a18188006a
:1006c000b08180000000e800b0818800b181800026
:1006d000f00f2000008060000000e0000a003a00f7
:1006e00090818000a18180004809dd004800de0083
:1006f00000007100c808de000000780060858800f6
:100700003230ef003430ef000c28a9000080fa00ee
:100710003400f9003200f900004006003600f8000d
:100720003200f8003400f80010002000a00188001a
:1007300010002000900188000000fa005b8ea800e5
:10074000a084800000b0a000a084880060618000c8
:10075000508588002061800040858800a006210027
:10076000d30507000d68a9005b8ea9000080fa0080
:100770003400f9003200f9003600f90000400600ac
:0c0780000040da000000fe000000050050
:020000040000fa
:10078c000000fa005b020700c7010700aa06070079
:10079c005e040700830407000000eb00108588004e
:1007ac0070382100c0848800301f2000e08488004d
:1007bc00703e200000858800a0ac2000b08488002a
:1007cc0050002000f0848800f08480000000e000dd
:1007dc0002003a0010002000f0848800c6060700d2
:1007ec00200921009040780060c1600021c8b3004e
:1007fc008140710001487800300921009040780058
:10080c00e0c060000114a00001487800a03820006e
:10081c00f10f2000010160000109210091417800d5
:10082c00e0c1610002c1710082487800c800de009e
:10083c001009210010417800604161008140710075
:10084c0001487800a008210090407800e0c06000ca
:10085c0001487800b008210090407800e0c06000aa
:10086c0001487800c00a2100f10f2000010160004e
:10087c000107210091417800e0c1610002c17100c3
:10088c0082487800c800de00100721001041780073
:10089c00604161008140710001487800c0c22000b5
:1008ac00f10f200001016000c10621009141780088
:1008bc00e0c1610002c1710082487800c800de000e
:1008cc00d006210010417800604161008140710028
:1008dc0001487800e0c82000f10f20000101600001
:1008ec00e106210091417800e0c1610002c1710074
:1008fc0082487800c800de00f00621001041780024
:10090c00604161008140710001487800e0082100dd
:10091c0090407800e0c060007140b300014878005e
:10092c00f008210090407800e0c06000f140b30076
:10093c0001487800c00821009040780060c1600038
:10094c0061c2b3008140710001487800d0082100d9
:10095c0090407800e0c060003140b300014878005e
:10096c00b0062100904078000174a1000148780085
:10097c000000eb0060858800100020000080fa0069
:10098c00000006000000fa003104070054060700be
:10099c002d020700a00621008a0507001000200088
:1009ac000080fa00000006000000fa00208580009c
:1009bc00e30f500045003200e30f500005003e00ed
:1009cc00e10f500012003200e10f500018003e0001
:1009dc0007003700e50f50007b003200e50f500098
:1009ec0061003900e60f50008c003200a000370087
:1009fc0063ff0700a184800080ff2f00008060004f
:100a0c00a08488001000200020858800c1003700d9
:100a1c00dcff0700a184800080ff2f0000806000b5
:100a2c00a08488002000200020858800b9003700b1
:100a3c00a184800080ff2f00008060000000a000d7
:100a4c00a084880031a3a800b00621009040780053
:100a5c000174a10001487800a084800000a0a100ce
:100a6c00a0848800a0848000ff800a0000000000a1
:100a7c000004e0009a003200a0848000bb800a00d1
:100a8c00000000000004e00097003200a084800009
:100a9c00cc800a00000000000004a2000004e0006a
:100aac0093003200a0848000dd800a00000000006a
:100abc000004e000900032000000eb00108588007c
:100acc003000200020858800920037005aaea80024
:100adc00a184800080ff2f00008060000010a00027
:100aec00a084880011858000c284800010c0b300ef
:100afc00828f500001003e000040eb008100e800b6
:100b0c00118588000004e0007d0032000000eb003d
:100b1c00b0848800a00621002a0507006009210086
:100b2c00f10f2000010160000107210091417800c4
:100b3c00e0c1610002c1710082487800c800de008b
:100b4c001007210010417800604161008140710064
:100b5c00014878000000eb00108588004000200060
:100b6c00208588006b0037005aaea900a184800054
:100b7c0080ff2f00008060000010a000a08488007f
:100b8c0031a3a900b0062100904078000174a000a8
:100b9c0001487800b1848000f0848000008040001f
:100bac00b0848800b184800060858000808f500004
:100bbc00550039000000eb00108588005000200023
:100bcc0020858800530037005aaea800a18480000d
:100bdc0080ff2f00008060000010a000a08488001f
:100bec00118580000285800010c0b300828f5000f8
:100bfc0001003e000040eb008100e80011858800f8
:100c0c000004e000420032000000eb001085880078
:100c1c0060002000208588003e0037005aaea900f5
:100c2c00a184800080ff2f00008060003000b300a2
:100c3c00a0848800c00a2100f10f2000010160008f
:100c4c000107210091417800e0c1610002c17100ef
:100c5c0082487800c800de0010072100104178009f
:100c6c006041610081407100014878002900370023
:100c7c00a184800080ff2f00008060000020a00075
:100c8c00a0848800a084800000c0a000a0848800fc
:100c9c0031a3a800b0062100904078000174a10097
:100cac0001487800a084800000f0a100a084880096
:100cbc00a084800000b0a100a0848800a0848000e3
:100ccc0000a0a100a0848800a084800000d0a10016
:100cdc00a084880020002000208588000d003700ab
:100cec00000000000b003700000000000900370076
:100cfc00000000000700370000000000050037006e
:100d0c000000000003003700000000000100370065
:100d1c0000000000a0848000ee800a0000000000ab
:100d2c000004e0000d003200a0848000cc800a009a
:100d3c00000000000004a2000004e00007003200e4
:100d4c00a084800000f0a000a0848800a084800013
:100d5c0000d0a000a084880003003700a08480008d
:100d6c0000d0a100a0848800100020000080fa00b0
:100d7c00000006000000fa00a52fa9002be3a90033
:100d8c0061e3a90097e3a900cde3a90003e4a9005e
:100d9c0039e4a9006fe4a900a5e4a9000103a900a6
:100dac008000eb0054210a000003000031002000f9
:100dbc0010210a00000300000223ef000423ef00bf
:100dcc000623ef000823ef0040592000501888003c
:100ddc000c23ef000e03a9000e23a9000e43a9005b
:100dec000e63a9000e83a9000ea3a9000ec3a900cf
:100dfc000ee3a9001003a9001023a9001043a900b9
:100e0c001063a9001083a90010a3a90010c3a900a6
:100e1c0010e3a9008000eb00fc210a001203000083
:100e2c0012e3a90021002000b8210a0012030000df
:100e3c0012c3a9001100200054210a001203000063
:100e4c008000eb0020210a00120300001423ef00a5
:100e5c001623ef001823ef001a23ef001c23ef00da
:100e6c001fe3a9001fc3a9001fa3a9001f83a9008a
:100e7c008000eb0074210a001e0300008000eb00d0
:100e8c0020210a001e0300002023ef002223ef0084
:100e9c002423ef002623ef002823ef00100020006e
:100eac000080fa00000006000000fa0023cea90022
:100ebc001fcea90029cea8002be3a9008000eb00cf
:100ecc00a8210a002a0300002ae3a900110020002f
:100edc0043210a002a0300001100200020210a00ef
:100eec002a0300002de3a9002dc3a8002da3a900ff
:100efc002d63a9008000eb00a8210a002c03000040
:100f0c002cc3a9008000eb0030210a002c03000048
:100f1c0031e3a90031c3a90031a3a8003183a80093
:100f2c0011002000ba210a00300300008000eb0001
:100f3c0098210a00300300008000eb0076210a00a3
:100f4c00300300008000eb0054210a003003000045
:100f5c008000eb0032210a00300300008000eb001f
:100f6c0010210a00300300008000eb00ec210a0085
:100f7c00320300003303a9001100200054210a00a1
:100f8c00320300003263a9003243a9003223a900c6
:100f9c003203a9002e23ef008000eb00fb210a0096
:100fac00340300003543a9003523a8003503a900fc
:100fbc008000eb0043210a00340300008000eb00aa
:100fcc0020210a003403000037e3a90037c3a9002d
:100fdc0037a3a9003783a9003100200098210a000b
:100fec003603000036e3a80036c3a90036a3a900d7
:100ffc008000eb0040210a00360300003fe3a9000b
:10100c008000eb00ec210a003e03000031002000c0
:10101c00a8210a003e0300003ee3a9008000eb007b
:10102c0065210a003e0300003e83a8003e63a80031
:10103c004100200020210a003e0300003de3a900ee
:10104c0011002000ec210a003c0300003d63a900c4
:10105c0041002000a8210a003c0300003ce3a90049
:10106c003cc3a9003ca3a900b101200040210a0007
:10107c003c0300003a23ef003823ef004223ef003b
:10108c004023ef004623ef004423ef001100200023
:10109c00a8210a004a0300004a63a8004a43a90099
:1010ac004a23a9004a03a90040062000401a8800e0
:1010bc0090012000601a880060472000701a880098
:1010cc005023ef0040592000901a88005423ef0061
:1010dc00b0042000b01a8800d04b2000c01a880041
:1010ec005a23ef005c23ef00100020000080fa0070
:1010fc00000006000000fa0061e3a9008000eb008c
:10110c00a8210a006003000060e3a9001100200080
:10111c0043210a00600300001100200020210a0076
:10112c006003000063e3a90063c3a80063a3a900e4
:10113c006363a9008000eb00a8210a006203000091
:10114c0062c3a9001100200030210a0062030000d4
:10115c006623ef008000eb00ec210a00680300001e
:10116c006903a9001100200054210a006803000043
:10117c006863a9006843a9006823a9006803a90053
:10118c006423ef008000eb00fb210a006a030000df
:10119c006b03a8006b23a9006b43a9008000eb0034
:1011ac0043210a006a0300008000eb0020210a00a2
:1011bc006a0300006de3a9006dc3a9006da3a9002b
:1011cc006d83a9003100200098210a006c030000f7
:1011dc006ca3a9006cc3a9006ce3a9008000eb0010
:1011ec0040210a006c0300007423ef007223ef000f
:1011fc007023ef006e23ef007823ef007623ef00cf
:10120c007c23ef007a23ef008023ef007e23ef0096
:10121c008223ef0060472000201c88008623ef000b
:10122c008823ef0020282000501c88008c23ef001e
:10123c008e23ef009023ef009223ef00100020008c
:10124c000080fa00000006000200fa000000eb002b
:10125c00000f78002be3a80061e3a8002e63a80020
:10126c006463a8000000000070198000700060002a
:10127c000000e00004003a00201b800070006000b9
:10128c000000e0000a0032009e00780010c0b3009d
:10129c0072382100828f5000010036000040eb00b4
:1012ac008100e800010f78000004e000eeff3a0036
:1012bc003263a8006863a80067a3a9006783a9002c
:1012cc00100020000080fa00000006000000fa0068
:1012dc00100007000000e00002003a000000eb00e4
:1012ec000a003700a0848000cc800a0000000000b7
:1012fc000004a2000004e00002003200920007008b
:10130c0001003700a9000700100020000080fa003f
:10131c00000006000200fa000000eb00000f78004d
:10132c00a0848000bb800a00000000000004a20022
:10133c000004e000020032000000eb0080003700e7
:10134c00d08180009000780010828000808f500047
:10135c000e003100e18180002282800010c0b300b9
:10136c00828f500001003e000040eb008100e8003d
:10137c00e18188000004e0000b0032002082800034
:10138c000000e800e081880007003700d081800071
:10139c0090007800f0818000808f500002003600b1
:1013ac000000eb00e0818800308280009000780023
:1013bc0070828000808f50000e00360041828000c9
:1013cc008282800010c0b300828f500001003e006a
:1013dc000040eb008100e800418288000004e0003e
:1013ec000b003200808280000000e8004082880000
:1013fc000700370030828000900078005082800017
:10140c00808f5000020031000000eb004082880009
:10141c009082800090007800d0828000808f5000f5
:10142c000e003600a1828000e282800010c0b30062
:10143c00828f500001003e000040eb008100e8006c
:10144c00a18288000004e0000b003200e0828000e2
:10145c000000e800a082880007003700908280001e
:10146c0090007800b0828000808f50000200310024
:10147c000000eb00a0828800b006210090407800ac
:10148c0000c8b30000c060000004e0002900320076
:10149c00f0828000100078008000780000072100a6
:1014ac001080fb00120721001281fb004811dd00a7
:1014bc0002007000100078000080500000f0a700bf
:1014cc000000ea00000f78001e0078008000780011
:1014dc0030838000808f50000e0036000183800026
:1014ec004283800010c0b300828f500001003e0088
:1014fc000040eb008100e800018388000004e0005c
:10150c000e003200408380000000e8000083880059
:10151c000a0037001e0078008000780030838000bd
:10152c00808f5000050031000000eb000083880024
:10153c00020037000000eb00008388001000200040
:10154c000080fa00000006000000fa00e181800033
:10155c0020828000808f50000c003e004182800071
:10156c0080828000808f500008003e00a1828000a5
:10157c00e0828000808f500004003e0001838000d8
:10158c0040838000808f500005003600a0848000ce
:10159c0000c0a000a08488002000200020858800c6
:1015ac00100020000080fa00000006000000fa0085
:1015bc00e08180000000e0001d003a0040828000c5
:1015cc000000e0001a003a00a08280000000e00059
:1015dc0017003a00c08180000000e800c08188003c
:1015ec0001828000c0818000808f5000100031008b
:1015fc0061828000c0818000808f50000c0031001f
:10160c00c1828000c0818000808f500008003100b2
:10161c0021838000c0818000808f50000400310045
:10162c00a084800000c0a100a08488003830ef00a6
:10163c00100020000080fa00000006000000fa00f4
:10164c000000eb00e0818800800a2100d081880036
:10165c00e0242000f0818800f070220000828800d5
:10166c0050202000108288009000200020828800ea
:10167c000000eb0040828800800a21003082880044
:10168c00c057200050828800f070220060828800d1
:10169c00505c2000708288009000200080828800be
:1016ac000000eb00a0828800a00a21009082880034
:1016bc00b0082100b0828800f0702200c08288003f
:1016cc0030142100d082880090002000e082880035
:1016dc000000eb0000838800a00a2100f082880043
:1016ec009004200010838800f07022002083880072
:1016fc00300920003083880090002000408388004f
:10170c00100020000080fa00000006000000fa0023
:10171c00a40fa90001eba90001aba9003100200026
:10172c0065210a00020b000002eba90005eba900e1
:10173c0005cba900058ba800056ba9007100200042
:10174c00a8210a00040b00001100200060210a00ef
:10175c00040b00008100200090210a00060b000001
:10176c0007cba90007eba9008000eb00fd210a00c4
:10177c00080b0000098ba900096ba900094ba900f3
:10178c00092ba900090ba90008eba90008cba9009b
:10179c008000eb0050210a00080b00001100200013
:1017ac00fe210a000a0b00008000eb00d8210a0081
:1017bc000a0b00000aeba9000a0ba9000a2ba900ce
:1017cc000c0ba9000c2ba9008000eb0010210a00c7
:1017dc000e0b00001100200032210a000e0b00003d
:1017ec0000eca900000ca900002ca900f1002000bd
:1017fc00b8210a00020c000002eca900020ca9009e
:10180c00022ca9008000eb0090210a00d80b0000ec
:10181c008000eb0090210a00d40b00003100200066
:10182c0098210a00d60b00008000eb0060210a0012
:10183c00d60b000071002000ca210a00d60b000054
:10184c003100200098210a00da0b00008000eb0028
:10185c0060210a00da0b000071002000ca210a0086
:10186c00da0b0000100020000080fa0000000600d7
:10187c000000fa00380ea800d18ba900132ba90088
:10188c00130ba900f18ba800218ba800610020008c
:10189c0040210a008c0b0000c1002000c8210a0066
:1018ac00a00b0000a0eba800a0cba900a08ba90066
:1018bc00a06ba800a04ba900a02ba900a00ba8000e
:1018cc00398ba80090292000e05988001053200083
:1018dc00f05988006beba90031002000ed210a00c3
:1018ec006a0b000031002000ca210a006a0b0000bc
:1018fc006b2ba900c100200040210a006a0b0000dc
:10190c00100020000080fa00000006000000fa0021
:10191c0038eea800d20ba900142ba900140ba900b7
:10192c00f20ba800220ba8006100200040210a0045
:10193c00900b000001012000c8210a00a40b00003c
:10194c00a4eba900a4cba900a48ba900a46ba900ab
:10195c00a44ba900a42ba900a40ba900420ba9001d
:10196c00442bef0090e52000305a88006feba90063
:10197c0031002000ed210a006e0b00001100200048
:10198c00ca210a006e0b00006f2ba9000101200078
:10199c0040210a006e0b0000100020000080fa00ad
:1019ac00000006000000fa001c2ea800d0cba900f5
:1019bc0011aba900118ba900f0cba80020cba8007b
:1019cc005100200040210a00860b0000610020001d
:1019dc00c8210a00a40b0000a4eba900a4cba90009
:1019ec00a48ba900a46ba900a44ba900a42ba9004b
:1019fc00a40ba90040cba900442bef00a0e82000c9
:101a0c00305a88006feba90031002000ed210a004c
:101a1c006e0b000011002000ca210a006e0b0000a2
:101a2c006f2ba9006100200040210a006e0b000002
:101a3c002100200064210a00700800000c28a90075
:101a4c002c28a800100020000080fa0000000600de
:101a5c000200fa000000eb00000f78000158800033
:101a6c0000002800008060000000e000020032004e
:101a7c00100020002d00370001eba80000eca8009e
:101a8c000000000001608000000028000080600061
:101a9c000000e0000a003a009e00780010c0b3007d
:101aac0072382100828f5000010036000040eb009c
:101abc008100e800010f78000004e000f1ff3a001b
:101acc000160800000002800008060000000e00041
:101adc00040032009e00780070382100808f500086
:101aec00020036000000eb00100037000aeba800e3
:101afc00000ca9000a0ba900002ca9000a2ba900b4
:101b0c008000eb00ec210a00720800000ce8a90030
:101b1c002ce8a90051002000ec210a0074080000f8
:101b2c000d68a9002d68a800100020000080fa00a4
:101b3c00000006000200fa000000eb00000f780025
:101b4c00217c800000002700008060000000e00085
:101b5c00290032000001eb0080072000a1092000c1
:101b6c0053f8200080497800814978008249780038
:101b7c00217c8000e00720000080600000017800dc
:101b8c000200a000600420007105200043f8200032
:101b9c008049780081497800824978000000000073
:101bac00eca10a00840f0000a8a00a00840f00001a
:101bbc0080cf50000a0032009e00780010c0b300a5
:101bcc0072382100828f5000010036000040eb007b
:101bdc008100e800010f78000004e000f0ff3a00fb
:101bec009e00780070382100808f50000200360073
:101bfc000000eb00670037008000eb0050210a006a
:101c0c008c0f00001100200050210a00860f0000ec
:101c1c00810c2000b0210a00880f00004100200038
:101c2c0064210a008a0f00001100200020210a0004
:101c3c008a0f00008000eb0098210a008a0f000038
:101c4c001200200080072000a109200053f820007a
:101c5c00804978008149780082497800eca10a001b
:101c6c00840f0000a8a00a00840f000080cf500051
:101c7c0028003200217c8000e007200000806000fa
:101c8c00000178000200a000600420007105200013
:101c9c0043f8200080497800814978008249780017
:101cac0000000000eca10a00840f0000a8a00a00ac
:101cbc00840f000080cf50000a0032009e00780094
:101ccc0010c0b30072382100828f50000100360022
:101cdc000040eb008100e800010f78000004e000f8
:101cec00f0ff3a00eca10a00840f0000a8a00a0043
:101cfc00840f000080cf500004003a009e00780052
:101d0c0070382100808f5000020036000000eb007c
:101d1c002000370084efa80000000000217c800028
:101d2c0000022000008060000000e0000a003a0081
:101d3c009e00780010c0b30072382100828f5000d2
:101d4c00010036000040eb008100e800010f780034
:101d5c000004e000f1ff3a00217c8000000220002a
:101d6c00008060000000e000040032009e0078005b
:101d7c0070382100808f5000020036000000eb000c
:101d8c000400370033a00a00840f00000080fb0021
:101d9c00610010000080fa00000006000200fa004a
:101dac000000eb00000f78008fefa900310020003d
:101dbc0098210a00920f00001100200050210a0007
:101dcc008e0f0000d1072000b0210a00900f0000f8
:101ddc002100200064210a00920f00001100200055
:101dec0020210a00920f00008f0fa8008fefa8008f
:101dfc00717c800000002800008060000000e00082
:101e0c0002003a000000eb00240037000000000044
:101e1c00717c800000002400008060000000e00065
:101e2c000a003a009e00780010c0b30072382100fe
:101e3c00828f5000010036000040eb008100e8006a
:101e4c00010f78000004e000f1ff3a00717c800083
:101e5c0000002400008060000000e0000a00320056
:101e6c009e00780010c0b30072382100828f5000a1
:101e7c0001003e000040eb008100e800010f7800fb
:101e8c000004e000020032000000eb000300370009
:101e9c00eea00a008e0f00000080fb000080fa000c
:101eac00000006008c1f7800000690000cf0a600c5
:101ebc0042003700440e20002402880040049000a9
:101ecc00600590005290c3008608c3008708c100cb
:101edc000500c8000080cb00d8ba97001301c100e0
:101eec000500c8000080cb00100190009200780023
:101efc003001900092801000400990008208dd00b3
:101f0c0050049000700590001a039000260598006c
:101f1c000a03900016059800010d78005290c70036
:101f2c008608c3008708c1000500c8000080cb00ec
:101f3c00d8ba97008708c1000500c8000080cb0004
:101f4c00d8ba97001301c1000500c8000080cb006f
:101f5c000480cd002013900016a0e600020037008c
:101f6c000c10a10002003700060278000c10a00033
:101f7c00101390001620e600020037000c00a100a0
:101f8c0002003700060278000c00a000200490002c
:101f9c00040c780041a3de004014900008034300b9
:101fac0030149000060c7800600590000a03900035
:101fbc0016059800040d78000c0098004f06780068
:101fcc0000000600801f7800600090000018eb00f5
:101fdc000008eb004f007800801f78007000900024
:101fec000018eb000018eb000008eb004f00780025
:101ffc0000000600801f7800811f780070009000a0
:10200c00011878000118780001087800cf007800da
:10201c004f007800801f7800821f780060009000cd
:10202c0002187800020878004f0178004f00780001
:10203c00000006000200fa000000eb00000f780020
:10204c00bcfe070055ff0700220107003b010700fb
:10205c0048fb070053000700acfd070004fe070017
:10206c0076fd0700490107000000eb002085880081
:10207c00a084800000e0a000a08488000000eb0099
:10208c0051052000b1468800a10a2000b146880005
:10209c00006888001f6ea900236ea9007101200042
:1020ac00d8210a008a0d0000008020005105200074
:1020bc00b1468800a10a2000b1468800006888005b
:1020cc0001e1a80022cea90022aea8005acea80099
:1020dc000000000000408000620060000000e00092
:1020ec000a003a009e00780010c0b300f25227009c
:1020fc00828f5000010036000040eb008100e800a8
:10210c00010f78000004e000f2ff3a000000eb0041
:10211c00000f78000028a90023fa07006bfc0700c9
:10212c00a084800067006000e30f500003003a00b9
:10213c0022cea80022aea9000200370022cea900b0
:10214c0022aea8006181800010c0b30072bb2000d9
:10215c00828f500001003e000040eb008100e8003f
:10216c00618188000004e0000b003200ffa00a002f
:10217c005a0e00000004a200614060000080fb00c9
:10218c004f00dd00d172800001f0a1000100700051
:10219c00d07288002c30ef0000000000000000001e
:1021ac00ccff37000000fa00b10fa900b12fa90035
:1021bc00b14fa90081eca90089eca90099eca90008
:1021cc00a9eca900fdeca9008000eb0010210a008d
:1021dc00fc0c00008000eb0032210a00fc0c00001b
:1021ec008000eb0054210a00fc0c000081aca9001b
:1021fc002100200076210a00800c00008000eb00fa
:10220c0054210a00800c00008000eb0020210a0001
:10221c00800c0000b104200090210a00840c000006
:10222c005105200090210a00860c000010002000af
:10223c000080fa00000006000000fa0089eca900fa
:10224c008000eb00ed210a00880c0000894ca800ee
:10225c00892ca800890ca90088cca9008000eb006f
:10226c0053210a00880c0000884ca80011002000a3
:10227c0010210a00880c0000b104200090210a00f3
:10228c008a0c00008e2cef008c2cef0093eca80035
:10229c00936ca900934ca900932ca9008000eb002f
:1022ac00fc210a00900c000011002000b8210a004b
:1022bc00900c00001100200074210a00900c00000a
:1022cc001100200030210a00900c0000a00020001a
:1022dc00a0648800100020000080fa0000000600b6
:1022ec000000fa0089eca80081eca8001000200086
:1022fc000080fa00000006000200fa000000eb006b
:10230c00000f78000000eb005083880000002100d3
:10231c009083880080002100a083880060ff260045
:10232c00b0838800a0ff2600c08388003081800025
:10233c002084880040818000308488005081800097
:10234c00408488002081800010848800a080800058
:10235c00d0838800b0808000e0838800c08080003b
:10236c00f0838800d0808000008488000000eb009f
:10237c00000f78000d0037001e0178001e00780059
:10238c00c10121004200dd00008040001000be00b1
:10239c00c211dd0002002100028141000089be0053
:1023ac001e0078000000e800000f7800d183800048
:1023bc001e007800808f5000efff3e000000eb0005
:1023cc00000f78000e0037001e0178001e00780008
:1023dc00c200dd00e00a2100008040001000be00b9
:1023ec000281e800c211dd000200210002814100df
:1023fc000089be001e0078000000e800000f780085
:10240c00e18380001e007800808f5000eeff3e00bc
:10241c00a0062100ebfe0700100020000080fa004f
:04242c0000000600a6
:020000040000fa
:10243000ae1000000c000000820000000000df0071
:1024400054060000c473000000f1ac006a100000e4
:102450002a000000800000000010000014000000ae
:102460008000000014100000120000008200000034
:1024700002000300000200000300ff00ff0e6f00d7
:102480000000e500a1030000f66f00000a00000054
:102490008000000026100000060000008000000000
:1024a0002c10000006000000800000003210000028
:1024b00006000000800000003a100000300000001c
:1024c00080000000381000000200000080000000c2
:1024d000941000001a0000008000000000000000be
:020000040000fa
:1024e0000000fa0001e1a90001a1a9000181a900f1
:1024f0000161a9000141a9003100200098210a00d2
:102500000001000000e1a9008000eb0054210a0056
:10251000000100000041a9000021a9000421ef00f2
:10252000f0702200400888008000eb0064210a005f
:10253000400800000028a9002028a9001000200061
:102540000080fa00000006000000fa00002eef00f4
:102550001c2eef00382eef00542eef005beea9008a
:1025600057eea90022cea9001ecea90022aea900d6
:102570001eaea9005b8ea900578ea9005aaea90015
:1025800056aea9005acea90056cea90010002000d0
:102590000080fa00000006000000fa000000eb00d6
:1025a0006085880002fd0700100020000080fa000e
:0425b0000000060021
:020000040000fa
:020000040005f5
:047e0000ffff000080
:020000040000fa
:020000040005f5
:047e2000ffffff0061
:020000040000fa
:020000040005f5
:047e300078ffff00d8
:020000040000fa
:020000040005f5
:047e38007bffff00cd
:020000040000fa
:020000040005f5
:047e40007f7fff0041
:020000040000fa
:020000040005f5
:047e4800ffffff0039
:020000040000fa
:020000040005f5
:047e5000deffff0052
:020000040000fa
:020000040005f5
:047e58000000ff0027
:020000040000fa
:020000040005f5
:047e60000000ff001f
:020000040000fa
:020000040005f5
:047e68000000ff0017
:020000040000fa
:020000040005f5
:047e70000000ff000f
:020000040000fa
:020000040005f5
:047e7800ffffff0009
:020000040000fa
:020000040005f5
:047e8000fffcff0004
:020000040000fa
:020000040005f5
:047e8800c9ffff002f
:020000040000fa
:020000040005f5
:047ff800ffffff0088
:020000040000fa
:020000040100f9
:04300000ffffff00cf
:00000001FF
